{
  "contractName": "ETHContinuousToken",
  "abi": [
    {
      "inputs": [
        {
          "internalType": "string",
          "name": "_name",
          "type": "string"
        },
        {
          "internalType": "string",
          "name": "_symbol",
          "type": "string"
        },
        {
          "internalType": "uint8",
          "name": "_decimals",
          "type": "uint8"
        },
        {
          "internalType": "uint256",
          "name": "_initialSupply",
          "type": "uint256"
        }
      ],
      "payable": true,
      "stateMutability": "payable",
      "type": "constructor"
    },
    {
      "anonymous": false,
      "inputs": [
        {
          "indexed": true,
          "internalType": "address",
          "name": "owner",
          "type": "address"
        },
        {
          "indexed": true,
          "internalType": "address",
          "name": "spender",
          "type": "address"
        },
        {
          "indexed": false,
          "internalType": "uint256",
          "name": "value",
          "type": "uint256"
        }
      ],
      "name": "Approval",
      "type": "event"
    },
    {
      "anonymous": false,
      "inputs": [
        {
          "indexed": false,
          "internalType": "address",
          "name": "sender",
          "type": "address"
        },
        {
          "indexed": false,
          "internalType": "uint256",
          "name": "amount",
          "type": "uint256"
        },
        {
          "indexed": false,
          "internalType": "uint256",
          "name": "refund",
          "type": "uint256"
        }
      ],
      "name": "Burned",
      "type": "event"
    },
    {
      "anonymous": false,
      "inputs": [
        {
          "indexed": false,
          "internalType": "address",
          "name": "sender",
          "type": "address"
        },
        {
          "indexed": false,
          "internalType": "uint256",
          "name": "amount",
          "type": "uint256"
        },
        {
          "indexed": false,
          "internalType": "uint256",
          "name": "deposit",
          "type": "uint256"
        }
      ],
      "name": "Minted",
      "type": "event"
    },
    {
      "anonymous": false,
      "inputs": [
        {
          "indexed": true,
          "internalType": "address",
          "name": "previousOwner",
          "type": "address"
        },
        {
          "indexed": true,
          "internalType": "address",
          "name": "newOwner",
          "type": "address"
        }
      ],
      "name": "OwnershipTransferred",
      "type": "event"
    },
    {
      "anonymous": false,
      "inputs": [
        {
          "indexed": true,
          "internalType": "address",
          "name": "from",
          "type": "address"
        },
        {
          "indexed": true,
          "internalType": "address",
          "name": "to",
          "type": "address"
        },
        {
          "indexed": false,
          "internalType": "uint256",
          "name": "value",
          "type": "uint256"
        }
      ],
      "name": "Transfer",
      "type": "event"
    },
    {
      "payable": true,
      "stateMutability": "payable",
      "type": "fallback"
    },
    {
      "constant": true,
      "inputs": [
        {
          "internalType": "address",
          "name": "owner",
          "type": "address"
        },
        {
          "internalType": "address",
          "name": "spender",
          "type": "address"
        }
      ],
      "name": "allowance",
      "outputs": [
        {
          "internalType": "uint256",
          "name": "",
          "type": "uint256"
        }
      ],
      "payable": false,
      "stateMutability": "view",
      "type": "function"
    },
    {
      "constant": false,
      "inputs": [
        {
          "internalType": "address",
          "name": "spender",
          "type": "address"
        },
        {
          "internalType": "uint256",
          "name": "amount",
          "type": "uint256"
        }
      ],
      "name": "approve",
      "outputs": [
        {
          "internalType": "bool",
          "name": "",
          "type": "bool"
        }
      ],
      "payable": false,
      "stateMutability": "nonpayable",
      "type": "function"
    },
    {
      "constant": true,
      "inputs": [
        {
          "internalType": "address",
          "name": "account",
          "type": "address"
        }
      ],
      "name": "balanceOf",
      "outputs": [
        {
          "internalType": "uint256",
          "name": "",
          "type": "uint256"
        }
      ],
      "payable": false,
      "stateMutability": "view",
      "type": "function"
    },
    {
      "constant": true,
      "inputs": [
        {
          "internalType": "uint256",
          "name": "_supply",
          "type": "uint256"
        },
        {
          "internalType": "uint256",
          "name": "_depositAmount",
          "type": "uint256"
        }
      ],
      "name": "calculatePurchaseReturn",
      "outputs": [
        {
          "internalType": "uint256",
          "name": "",
          "type": "uint256"
        }
      ],
      "payable": false,
      "stateMutability": "pure",
      "type": "function"
    },
    {
      "constant": true,
      "inputs": [
        {
          "internalType": "uint256",
          "name": "_supply",
          "type": "uint256"
        },
        {
          "internalType": "uint256",
          "name": "_reserveBalance",
          "type": "uint256"
        },
        {
          "internalType": "uint256",
          "name": "_sellAmount",
          "type": "uint256"
        }
      ],
      "name": "calculateSaleReturn",
      "outputs": [
        {
          "internalType": "uint256",
          "name": "",
          "type": "uint256"
        }
      ],
      "payable": false,
      "stateMutability": "pure",
      "type": "function"
    },
    {
      "constant": true,
      "inputs": [],
      "name": "continuousSupply",
      "outputs": [
        {
          "internalType": "uint256",
          "name": "",
          "type": "uint256"
        }
      ],
      "payable": false,
      "stateMutability": "view",
      "type": "function"
    },
    {
      "constant": true,
      "inputs": [],
      "name": "decimals",
      "outputs": [
        {
          "internalType": "uint8",
          "name": "",
          "type": "uint8"
        }
      ],
      "payable": false,
      "stateMutability": "view",
      "type": "function"
    },
    {
      "constant": false,
      "inputs": [
        {
          "internalType": "address",
          "name": "spender",
          "type": "address"
        },
        {
          "internalType": "uint256",
          "name": "subtractedValue",
          "type": "uint256"
        }
      ],
      "name": "decreaseAllowance",
      "outputs": [
        {
          "internalType": "bool",
          "name": "",
          "type": "bool"
        }
      ],
      "payable": false,
      "stateMutability": "nonpayable",
      "type": "function"
    },
    {
      "constant": true,
      "inputs": [
        {
          "internalType": "uint256",
          "name": "_continuousTokenAmount",
          "type": "uint256"
        }
      ],
      "name": "getContinuousBurnRefund",
      "outputs": [
        {
          "internalType": "uint256",
          "name": "",
          "type": "uint256"
        }
      ],
      "payable": false,
      "stateMutability": "view",
      "type": "function"
    },
    {
      "constant": true,
      "inputs": [
        {
          "internalType": "uint256",
          "name": "_reserveTokenAmount",
          "type": "uint256"
        }
      ],
      "name": "getContinuousMintReward",
      "outputs": [
        {
          "internalType": "uint256",
          "name": "",
          "type": "uint256"
        }
      ],
      "payable": false,
      "stateMutability": "view",
      "type": "function"
    },
    {
      "constant": false,
      "inputs": [
        {
          "internalType": "address",
          "name": "spender",
          "type": "address"
        },
        {
          "internalType": "uint256",
          "name": "addedValue",
          "type": "uint256"
        }
      ],
      "name": "increaseAllowance",
      "outputs": [
        {
          "internalType": "bool",
          "name": "",
          "type": "bool"
        }
      ],
      "payable": false,
      "stateMutability": "nonpayable",
      "type": "function"
    },
    {
      "constant": true,
      "inputs": [],
      "name": "isOwner",
      "outputs": [
        {
          "internalType": "bool",
          "name": "",
          "type": "bool"
        }
      ],
      "payable": false,
      "stateMutability": "view",
      "type": "function"
    },
    {
      "constant": true,
      "inputs": [],
      "name": "maxGasPrice",
      "outputs": [
        {
          "internalType": "uint256",
          "name": "",
          "type": "uint256"
        }
      ],
      "payable": false,
      "stateMutability": "view",
      "type": "function"
    },
    {
      "constant": true,
      "inputs": [],
      "name": "name",
      "outputs": [
        {
          "internalType": "string",
          "name": "",
          "type": "string"
        }
      ],
      "payable": false,
      "stateMutability": "view",
      "type": "function"
    },
    {
      "constant": true,
      "inputs": [],
      "name": "owner",
      "outputs": [
        {
          "internalType": "address",
          "name": "",
          "type": "address"
        }
      ],
      "payable": false,
      "stateMutability": "view",
      "type": "function"
    },
    {
      "constant": false,
      "inputs": [],
      "name": "renounceOwnership",
      "outputs": [],
      "payable": false,
      "stateMutability": "nonpayable",
      "type": "function"
    },
    {
      "constant": false,
      "inputs": [
        {
          "internalType": "uint256",
          "name": "newPrice",
          "type": "uint256"
        }
      ],
      "name": "setMaxGasPrice",
      "outputs": [],
      "payable": false,
      "stateMutability": "nonpayable",
      "type": "function"
    },
    {
      "constant": false,
      "inputs": [
        {
          "internalType": "uint256",
          "name": "_amount",
          "type": "uint256"
        }
      ],
      "name": "sponsoredBurn",
      "outputs": [],
      "payable": false,
      "stateMutability": "nonpayable",
      "type": "function"
    },
    {
      "constant": false,
      "inputs": [
        {
          "internalType": "address",
          "name": "_from",
          "type": "address"
        },
        {
          "internalType": "uint256",
          "name": "_amount",
          "type": "uint256"
        }
      ],
      "name": "sponsoredBurnFrom",
      "outputs": [],
      "payable": false,
      "stateMutability": "nonpayable",
      "type": "function"
    },
    {
      "constant": true,
      "inputs": [
        {
          "internalType": "uint256",
          "name": "_x",
          "type": "uint256"
        }
      ],
      "name": "sqrt",
      "outputs": [
        {
          "internalType": "uint256",
          "name": "",
          "type": "uint256"
        }
      ],
      "payable": false,
      "stateMutability": "pure",
      "type": "function"
    },
    {
      "constant": true,
      "inputs": [],
      "name": "symbol",
      "outputs": [
        {
          "internalType": "string",
          "name": "",
          "type": "string"
        }
      ],
      "payable": false,
      "stateMutability": "view",
      "type": "function"
    },
    {
      "constant": true,
      "inputs": [],
      "name": "totalSupply",
      "outputs": [
        {
          "internalType": "uint256",
          "name": "",
          "type": "uint256"
        }
      ],
      "payable": false,
      "stateMutability": "view",
      "type": "function"
    },
    {
      "constant": false,
      "inputs": [
        {
          "internalType": "address",
          "name": "recipient",
          "type": "address"
        },
        {
          "internalType": "uint256",
          "name": "amount",
          "type": "uint256"
        }
      ],
      "name": "transfer",
      "outputs": [
        {
          "internalType": "bool",
          "name": "",
          "type": "bool"
        }
      ],
      "payable": false,
      "stateMutability": "nonpayable",
      "type": "function"
    },
    {
      "constant": false,
      "inputs": [
        {
          "internalType": "address",
          "name": "sender",
          "type": "address"
        },
        {
          "internalType": "address",
          "name": "recipient",
          "type": "address"
        },
        {
          "internalType": "uint256",
          "name": "amount",
          "type": "uint256"
        }
      ],
      "name": "transferFrom",
      "outputs": [
        {
          "internalType": "bool",
          "name": "",
          "type": "bool"
        }
      ],
      "payable": false,
      "stateMutability": "nonpayable",
      "type": "function"
    },
    {
      "constant": false,
      "inputs": [
        {
          "internalType": "address",
          "name": "newOwner",
          "type": "address"
        }
      ],
      "name": "transferOwnership",
      "outputs": [],
      "payable": false,
      "stateMutability": "nonpayable",
      "type": "function"
    },
    {
      "constant": true,
      "inputs": [],
      "name": "version",
      "outputs": [
        {
          "internalType": "string",
          "name": "",
          "type": "string"
        }
      ],
      "payable": false,
      "stateMutability": "view",
      "type": "function"
    },
    {
      "constant": false,
      "inputs": [],
      "name": "mint",
      "outputs": [],
      "payable": true,
      "stateMutability": "payable",
      "type": "function"
    },
    {
      "constant": false,
      "inputs": [
        {
          "internalType": "uint256",
          "name": "_amount",
          "type": "uint256"
        }
      ],
      "name": "burn",
      "outputs": [],
      "payable": false,
      "stateMutability": "nonpayable",
      "type": "function"
    },
    {
      "constant": true,
      "inputs": [],
      "name": "reserveBalance",
      "outputs": [
        {
          "internalType": "uint256",
          "name": "",
          "type": "uint256"
        }
      ],
      "payable": false,
      "stateMutability": "view",
      "type": "function"
    }
  ],
  "bytecode": "0x60c06040526003608081905262302e3360e81b60a090815262000026916007919062000b28565b50670de0b6b3a7640000608855604051620027f9380380620027f9833981810160405260808110156200005857600080fd5b81019080805160405193929190846401000000008211156200007957600080fd5b9083019060208201858111156200008f57600080fd5b8251640100000000811182820188101715620000aa57600080fd5b82525081516020918201929091019080838360005b83811015620000d9578181015183820152602001620000bf565b50505050905090810190601f168015620001075780820380516001836020036101000a031916815260200191505b50604052602001805160405193929190846401000000008211156200012b57600080fd5b9083019060208201858111156200014157600080fd5b82516401000000008111828201881017156200015c57600080fd5b82525081516020918201929091019080838360005b838110156200018b57818101518382015260200162000171565b50505050905090810190601f168015620001b95780820380516001836020036101000a031916815260200191505b50604090815260208201519101519092509050838383838383836000620001e86001600160e01b03620009bc16565b600080546001600160a01b0319166001600160a01b0383169081178255604051929350917f8be0079c531659141344cd1fd0a4f28419497f9722a3daafe3b4186f6b6457e0908290a35082516200024790600490602086019062000b28565b5081516200025d90600590602085019062000b28565b506006805460ff191660ff9290921691909117905550506001641c35fedd1560601b036028556001646c3390ecc9605e1b036029556001640cf801476160611b03602a5560016431bdb23e1d605f1b03602b5560016502fb1d8fe083605b1b03602c5560016505b771955b37605a1b03602d556001650af67a93bb5160591b03602e5560016515060c256cb360581b03602f556001651428a2f98d7360581b036030556001654d515663970960561b03603155600165944620b0e70f60551b03603255600166011c592761c66760541b0360335560016602214d10d014eb60531b03603455600166020ade36b7dbef60531b0360355560016603eab73b3bbfe360521b036036556001660782ee3593f6d760511b036037556001661ccf4b44bb4821604f1b0360385560016606e7f88ad8a77760511b0360395560016669f3d1c921891d604d1b03603a55600166cb2ff529eb71e5604c1b03603b55600166c2d415c3db974b604c1b03603c5560016702eb40f9f620fda7604a1b03603d5560016705990681d961a1eb60491b03603e55600167055e12902701414760491b03603f5560016714962dee9dc9764160471b0360405560016704ef57b9b560fab560491b0360415560016712ed7b32a58f552b60471b036042556001679131271922eaa60760441b036043556001678b380f3558668c4760441b036044556001680215f77c045fbe885760421b036045556001600160831b036046556001670f577eded5773a1160471b036047556001680eb5ec597592befbf5603f1b036048556001681c35fedd14b861eb05603e1b036049556001683619c87664579bc94b603d1b03604a5560016867c00a3b07ffc01fd7603c1b03604b55600168c6f6c8f8739773a7a5603b1b03604c55600168bec763f8209b7a72b1603b1b03604d5560016902dbb8caad9b7097b91b60391b03604e55600169057b3d49dda84556d6f760381b03604f55600169054183095b2c8ececf3160381b036050556001690a14517cc6b9457111ef60371b0360515560016913545598e5c23276ccf160361b036052556001692511882c39c3adea96ff60351b03605355600169471649d87199aa99075760341b036054557004429a21a029d4c1457cfbffffffffffff605555700415bc6d6fb7dd71af2cb3ffffffffffff6056557003eab73b3bbfe282243ce1ffffffffffff6057557003c1771ac9fb6b4c18e229ffffffffffff605855700399e96897690418f785257fffffffffff605955700373fc456c53bb779bf0ea9fffffffffff605a5570034f9e8e490c48e67e6ab8bfffffffffff605b5570032cbfd4a7adc790560b3337ffffffffff605c5570030b50570f6e5d2acca94613ffffffffff605d557002eb40f9f620fda6b56c2861ffffffffff605e557002cc8340ecb0d0f520a6af58ffffffffff605f557002af09481380a0a35cf1ba02ffffffffff606055700292c5bdd3b92ec810287b1b3fffffffff606155700277abdcdab07d5a77ac6d6b9fffffffff60625570025daf6654b1eaa55fd64df5efffffffff606355700244c49c648baa98192dce88b7ffffffff60645570022ce03cd5619a311b2471268bffffffff606555700215f77c045fbe885654a44a0fffffffff6066556001600160811b036067557001eaefdbdaaee7421fc4d3ede5ffffffff6068557001d6bd8b2eb257df7e8ca57b09bfffffff6069557001c35fedd14b861eb0443f7f133fffffff606a557001b0ce43b322bcde4a56e8ada5afffffff606b5570019f0028ec1fff007f5a195a39dfffffff606c5570018ded91f0e72ee74f49b15ba527ffffff606d5570017d8ec7f04136f4e5615fd41a63ffffff606e5570016ddc6556cdb84bdc8d12d22e6fffffff606f5570015ecf52776a1155b5bd8395814f7fffff60705570015060c256cb23b3b3cc3754cf40ffffff6071557001428a2f98d728ae223ddab715be3fffff60725570013545598e5c23276ccf0ede68034fffff6073557001288c4161ce1d6f54b7f61081194fffff60745570011c592761c666aa641d5a01a40f17ffff607555700110a688680a7530515f3e6e6cfdcdffff6076557001056f1b5bedf75c6bcb2ce8aed428ffff6077556ffaadceceeff8a0890f3875f008277fff6078556ff05dc6b27edad306388a600f6ba0bfff6079556fe67a5a25da41063de1495d5b18cdbfff607a556fdcff115b14eedde6fc3aa5353f2e4fff607b556fd3e7a3924312399f9aae2e0f868f8fff607c556fcb2ff529eb71e41582cccd5a1ee26fff607d556fc2d415c3db974ab32a51840c0b67edff607e556fbad03e7d883f69ad5b0a186184e06bff607f556fb320d03b2c343d4829abd6075f0cc5ff6080556fabc25204e02828d73c6e80bcdb1a95bf6081556fa4b16f74ee4bb2040a1ec6c15fbbf2df6082556f9deaf736ac1f569deb1b5ae3f36c130f6083556f976bd9952c7aa957f5937d790ef650376084556f9131271922eaa6064b73a22d0bd4f2bf6085556f8b380f3558668c46c91c49a2f8e967b96086556f857ddf0117efa215952912839f6473e6608755620009a93382620009c1565b5050346089555062000bca945050505050565b335b90565b6001600160a01b03821662000a1d576040805162461bcd60e51b815260206004820152601f60248201527f45524332303a206d696e7420746f20746865207a65726f206164647265737300604482015290519081900360640190fd5b62000a398160035462000ac660201b620010ac1790919060201c565b6003556001600160a01b03821660009081526001602090815260409091205462000a6e918390620010ac62000ac6821b17901c565b6001600160a01b03831660008181526001602090815260408083209490945583518581529351929391927fddf252ad1be2c89b69c2b068fc378daa952ba7f163c4a11628f55a4df523b3ef9281900390910190a35050565b60008282018381101562000b21576040805162461bcd60e51b815260206004820152601b60248201527f536166654d6174683a206164646974696f6e206f766572666c6f770000000000604482015290519081900360640190fd5b9392505050565b828054600181600116156101000203166002900490600052602060002090601f016020900481019282601f1062000b6b57805160ff191683800117855562000b9b565b8280016001018555821562000b9b579182015b8281111562000b9b57825182559160200191906001019062000b7e565b5062000ba992915062000bad565b5090565b620009be91905b8082111562000ba9576000815560010162000bb4565b611c1f8062000bda6000396000f3fe6080604052600436106101c25760003560e01c806374293bf8116100f7578063a457c2d711610095578063d2fa635e11610064578063d2fa635e14610636578063da12457a14610660578063dd62ed3e14610675578063f2fde38b146106b0576101c2565b8063a457c2d71461055b578063a9059cbb14610594578063ace4e824146105cd578063b265c702146105fd576101c2565b80638f32d59b116100d15780638f32d59b146104f257806395d89b4114610507578063963438861461051c578063a10954fe14610546576101c2565b806374293bf8146104615780637cbed3e0146104975780638da5cb5b146104c1576101c2565b8063395093511161016457806354fd4d501161013e57806354fd4d50146103da578063677342ce146103ef57806370a0823114610419578063715018a61461044c576101c2565b806339509351146103625780633de39c111461039b57806342966c68146103b0576101c2565b80631249c58b116101a05780631249c58b146101c257806318160ddd146102df57806323b872dd146102f4578063313ce56714610337576101c2565b806306fdde03146101cc578063095ea7b3146102565780630d8f9f7f146102a3575b6101ca6106e3565b005b3480156101d857600080fd5b506101e1610707565b6040805160208082528351818301528351919283929083019185019080838360005b8381101561021b578181015183820152602001610203565b50505050905090810190601f1680156102485780820380516001836020036101000a031916815260200191505b509250505060405180910390f35b34801561026257600080fd5b5061028f6004803603604081101561027957600080fd5b506001600160a01b03813516906020013561079d565b604080519115158252519081900360200190f35b3480156102af57600080fd5b506102cd600480360360208110156102c657600080fd5b50356107bb565b60408051918252519081900360200190f35b3480156102eb57600080fd5b506102cd6107d6565b34801561030057600080fd5b5061028f6004803603606081101561031757600080fd5b506001600160a01b038135811691602081013590911690604001356107dc565b34801561034357600080fd5b5061034c61086a565b6040805160ff9092168252519081900360200190f35b34801561036e57600080fd5b5061028f6004803603604081101561038557600080fd5b506001600160a01b038135169060200135610873565b3480156103a757600080fd5b506102cd6108c7565b3480156103bc57600080fd5b506101ca600480360360208110156103d357600080fd5b50356108cd565b3480156103e657600080fd5b506101e1610923565b3480156103fb57600080fd5b506102cd6004803603602081101561041257600080fd5b50356109b1565b34801561042557600080fd5b506102cd6004803603602081101561043c57600080fd5b50356001600160a01b0316610a1e565b34801561045857600080fd5b506101ca610a39565b34801561046d57600080fd5b506102cd6004803603606081101561048457600080fd5b5080359060208101359060400135610adc565b3480156104a357600080fd5b506102cd600480360360208110156104ba57600080fd5b5035610ba1565b3480156104cd57600080fd5b506104d6610bbc565b604080516001600160a01b039092168252519081900360200190f35b3480156104fe57600080fd5b5061028f610bcb565b34801561051357600080fd5b506101e1610bef565b34801561052857600080fd5b506101ca6004803603602081101561053f57600080fd5b5035610c50565b34801561055257600080fd5b506102cd610c9d565b34801561056757600080fd5b5061028f6004803603604081101561057e57600080fd5b506001600160a01b038135169060200135610ca3565b3480156105a057600080fd5b5061028f600480360360408110156105b757600080fd5b506001600160a01b038135169060200135610d11565b3480156105d957600080fd5b506102cd600480360360408110156105f057600080fd5b5080359060200135610d25565b34801561060957600080fd5b506101ca6004803603604081101561062057600080fd5b506001600160a01b038135169060200135610e6c565b34801561064257600080fd5b506101ca6004803603602081101561065957600080fd5b5035610eba565b34801561066c57600080fd5b506102cd610f18565b34801561068157600080fd5b506102cd6004803603604081101561069857600080fd5b506001600160a01b0381358116916020013516610f27565b3480156106bc57600080fd5b506101ca600480360360208110156106d357600080fd5b50356001600160a01b0316610f52565b346106ed81610fb7565b50608954610701908263ffffffff6110ac16565b60895550565b60048054604080516020601f60026000196101006001881615020190951694909404938401819004810282018101909252828152606093909290918301828280156107935780601f1061076857610100808354040283529160200191610793565b820191906000526020600020905b81548152906001019060200180831161077657829003601f168201915b5050505050905090565b60006107b16107aa611106565b848461110a565b5060015b92915050565b60006107ce6107c8610f18565b83610d25565b90505b919050565b60035490565b60006107e98484846111f6565b61085f846107f5611106565b61085a85604051806060016040528060288152602001611a82602891396001600160a01b038a16600090815260026020526040812090610833611106565b6001600160a01b03168152602081019190915260400160002054919063ffffffff61135416565b61110a565b5060015b9392505050565b60065460ff1690565b60006107b1610880611106565b8461085a8560026000610891611106565b6001600160a01b03908116825260208083019390935260409182016000908120918c16815292529020549063ffffffff6110ac16565b60885481565b60006108d8826113eb565b6089549091506108ee908263ffffffff61153d16565b608955604051339082156108fc029083906000818181858888f1935050505015801561091e573d6000803e3d6000fd5b505050565b6007805460408051602060026001851615610100026000190190941693909304601f810184900484028201840190925281815292918301828280156109a95780601f1061097e576101008083540402835291602001916109a9565b820191906000526020600020905b81548152906001019060200180831161098c57829003601f168201915b505050505081565b6000816109c0575060006107d1565b600382116109d0575060016107d1565b60006109e660018401600263ffffffff61157f16565b9050825b80821015610863575080610a17600282610a0a878263ffffffff61157f16565b019063ffffffff61157f16565b91506109ea565b6001600160a01b031660009081526001602052604090205490565b610a41610bcb565b610a92576040805162461bcd60e51b815260206004820181905260248201527f4f776e61626c653a2063616c6c6572206973206e6f7420746865206f776e6572604482015290519081900360640190fd5b600080546040516001600160a01b03909116907f8be0079c531659141344cd1fd0a4f28419497f9722a3daafe3b4186f6b6457e0908390a3600080546001600160a01b0319169055565b60008084118015610aed5750600083115b8015610af95750838211155b610b345760405162461bcd60e51b815260040180806020018281038252608e815260200180611b38608e913960a00191505060405180910390fd5b81610b4157506000610863565b83821415610b50575081610863565b610b99671bc16d674ec80000610b8d84670de0b6b3a764000081610b7f818b038301600263ffffffff6115c116565b01039063ffffffff6115c116565b9063ffffffff61157f16565b949350505050565b60006107ce610bae610f18565b610bb6610c9d565b84610adc565b6000546001600160a01b031690565b600080546001600160a01b0316610be0611106565b6001600160a01b031614905090565b60058054604080516020601f60026000196101006001881615020190951694909404938401819004810282018101909252828152606093909290918301828280156107935780601f1061076857610100808354040283529160200191610793565b610c5a338261161a565b604080513381526020810183905260008183015290517f23ff0e75edf108e3d0392d92e13e8c8a868ef19001bd49f9e94876dc46dff87f9181900360600190a150565b60895490565b60006107b1610cb0611106565b8461085a85604051806060016040528060258152602001611bc66025913960026000610cda611106565b6001600160a01b03908116825260208083019390935260409182016000908120918d1681529252902054919063ffffffff61135416565b60006107b1610d1e611106565b84846111f6565b6000808311610d73576040805162461bcd60e51b81526020600482015260156024820152740e8d0d2e640e8ded6cadc40d2e640c8cac2c840765605b1b604482015290519081900360640190fd5b691a784379d99db42000008210610dca576040805162461bcd60e51b81526020600482015260166024820152756f6820776f772e205468616e6b732c20627574206e6f60501b604482015290519081900360640190fd5b81610dd7575060006107b5565b600082610e00671bc16d674ec80000610b8d87670de0b6b3a7640000810163ffffffff6115c116565b0190506000610e516002670de0b6b3a7640000610e44610e2e86676f05b59d3b20000063ffffffff6115c116565b6ec097ce7bc90715b34b9f1000000000016109b1565b039063ffffffff61157f16565b9050610e63818663ffffffff61153d16565b95945050505050565b610e768282611716565b604080513381526020810183905260008183015290517f23ff0e75edf108e3d0392d92e13e8c8a868ef19001bd49f9e94876dc46dff87f9181900360600190a15050565b610ec2610bcb565b610f13576040805162461bcd60e51b815260206004820181905260248201527f4f776e61626c653a2063616c6c6572206973206e6f7420746865206f776e6572604482015290519081900360640190fd5b608855565b6000610f226107d6565b905090565b6001600160a01b03918216600090815260026020908152604080832093909416825291909152205490565b610f5a610bcb565b610fab576040805162461bcd60e51b815260206004820181905260248201527f4f776e61626c653a2063616c6c6572206973206e6f7420746865206f776e6572604482015290519081900360640190fd5b610fb48161176e565b50565b60006088543a1115610ffa5760405162461bcd60e51b81526004018080602001828103825260488152602001806119f36048913960600191505060405180910390fd5b6000821161104f576040805162461bcd60e51b815260206004820152601960248201527f4465706f736974206d757374206265206e6f6e2d7a65726f2e00000000000000604482015290519081900360640190fd5b600061105a836107bb565b9050611066338261180e565b604080513381526020810183905280820185905290517f25b428dfde728ccfaddad7e29e4ac23c24ed7fd1a6e3e3f91894a9a073f5dfff9181900360600190a192915050565b600082820183811015610863576040805162461bcd60e51b815260206004820152601b60248201527f536166654d6174683a206164646974696f6e206f766572666c6f770000000000604482015290519081900360640190fd5b3390565b6001600160a01b03831661114f5760405162461bcd60e51b8152600401808060200182810382526024815260200180611b146024913960400191505060405180910390fd5b6001600160a01b0382166111945760405162461bcd60e51b81526004018080602001828103825260228152602001806119d16022913960400191505060405180910390fd5b6001600160a01b03808416600081815260026020908152604080832094871680845294825291829020859055815185815291517f8c5be1e5ebec7d5bd14f71427d1e84f3dd0314c0f7b2291e5b200ac8c7c3b9259281900390910190a3505050565b6001600160a01b03831661123b5760405162461bcd60e51b8152600401808060200182810382526025815260200180611aef6025913960400191505060405180910390fd5b6001600160a01b0382166112805760405162461bcd60e51b81526004018080602001828103825260238152602001806119666023913960400191505060405180910390fd5b6112c381604051806060016040528060268152602001611a3b602691396001600160a01b038616600090815260016020526040902054919063ffffffff61135416565b6001600160a01b0380851660009081526001602052604080822093909355908416815220546112f8908263ffffffff6110ac16565b6001600160a01b0380841660008181526001602090815260409182902094909455805185815290519193928716927fddf252ad1be2c89b69c2b068fc378daa952ba7f163c4a11628f55a4df523b3ef92918290030190a3505050565b600081848411156113e35760405162461bcd60e51b81526004018080602001828103825283818151815260200191508051906020019080838360005b838110156113a8578181015183820152602001611390565b50505050905090810190601f1680156113d55780820380516001836020036101000a031916815260200191505b509250505060405180910390fd5b505050900390565b60006088543a111561142e5760405162461bcd60e51b81526004018080602001828103825260488152602001806119f36048913960600191505060405180910390fd5b60008211611483576040805162461bcd60e51b815260206004820152601860248201527f416d6f756e74206d757374206265206e6f6e2d7a65726f2e0000000000000000604482015290519081900360640190fd5b8161148d33610a1e565b10156114e0576040805162461bcd60e51b815260206004820152601c60248201527f496e73756666696369656e7420746f6b656e7320746f206275726e2e00000000604482015290519081900360640190fd5b60006114eb83610ba1565b90506114f7338461161a565b604080513381526020810185905280820183905290517f23ff0e75edf108e3d0392d92e13e8c8a868ef19001bd49f9e94876dc46dff87f9181900360600190a192915050565b600061086383836040518060400160405280601e81526020017f536166654d6174683a207375627472616374696f6e206f766572666c6f770000815250611354565b600061086383836040518060400160405280601a81526020017f536166654d6174683a206469766973696f6e206279207a65726f000000000000815250611900565b6000826115d0575060006107b5565b828202828482816115dd57fe5b04146108635760405162461bcd60e51b8152600401808060200182810382526021815260200180611a616021913960400191505060405180910390fd5b6001600160a01b03821661165f5760405162461bcd60e51b8152600401808060200182810382526021815260200180611ace6021913960400191505060405180910390fd5b6116a281604051806060016040528060228152602001611989602291396001600160a01b038516600090815260016020526040902054919063ffffffff61135416565b6001600160a01b0383166000908152600160205260409020556003546116ce908263ffffffff61153d16565b6003556040805182815290516000916001600160a01b038516917fddf252ad1be2c89b69c2b068fc378daa952ba7f163c4a11628f55a4df523b3ef9181900360200190a35050565b611720828261161a565b61176a8261172c611106565b61085a84604051806060016040528060248152602001611aaa602491396001600160a01b038816600090815260026020526040812090610833611106565b5050565b6001600160a01b0381166117b35760405162461bcd60e51b81526004018080602001828103825260268152602001806119ab6026913960400191505060405180910390fd5b600080546040516001600160a01b03808516939216917f8be0079c531659141344cd1fd0a4f28419497f9722a3daafe3b4186f6b6457e091a3600080546001600160a01b0319166001600160a01b0392909216919091179055565b6001600160a01b038216611869576040805162461bcd60e51b815260206004820152601f60248201527f45524332303a206d696e7420746f20746865207a65726f206164647265737300604482015290519081900360640190fd5b60035461187c908263ffffffff6110ac16565b6003556001600160a01b0382166000908152600160205260409020546118a8908263ffffffff6110ac16565b6001600160a01b03831660008181526001602090815260408083209490945583518581529351929391927fddf252ad1be2c89b69c2b068fc378daa952ba7f163c4a11628f55a4df523b3ef9281900390910190a35050565b6000818361194f5760405162461bcd60e51b81526020600482018181528351602484015283519092839260449091019190850190808383600083156113a8578181015183820152602001611390565b50600083858161195b57fe5b049594505050505056fe45524332303a207472616e7366657220746f20746865207a65726f206164647265737345524332303a206275726e20616d6f756e7420657863656564732062616c616e63654f776e61626c653a206e6577206f776e657220697320746865207a65726f206164647265737345524332303a20617070726f766520746f20746865207a65726f2061646472657373476173207072696365206d757374206265203c3d206d6178696d756d2067617320707269636520746f2070726576656e742066726f6e742072756e6e696e672061747461636b732e45524332303a207472616e7366657220616d6f756e7420657863656564732062616c616e6365536166654d6174683a206d756c7469706c69636174696f6e206f766572666c6f7745524332303a207472616e7366657220616d6f756e74206578636565647320616c6c6f77616e636545524332303a206275726e20616d6f756e74206578636565647320616c6c6f77616e636545524332303a206275726e2066726f6d20746865207a65726f206164647265737345524332303a207472616e736665722066726f6d20746865207a65726f206164647265737345524332303a20617070726f76652066726f6d20746865207a65726f2061646472657373436865636b2074686520666f6c6c6f77696e673a2028692920737570706c79206d7573742062652067726561746572207468616e20303b2028696929207265736572766542616c616e6365206d7573742062652067726561746572207468616e20303b20286969692920796f752063616e6e6f742073656c6c206d6f7265207468616e2074686520737570706c7945524332303a2064656372656173656420616c6c6f77616e63652062656c6f77207a65726fa265627a7a723158204a91110bb240c6f13e3bc71486342e0db3ae2edbad50bca82d1067ef971b91d464736f6c63430005110032",
  "source": "pragma solidity >=0.5.0 <0.6.0;\n\nimport \"./ContinuousToken.sol\";\n\n\ncontract ETHContinuousToken is ContinuousToken {\n    uint256 internal reserve;\n\n    constructor(\n        string memory _name,\n        string memory _symbol,\n        uint8 _decimals,\n        uint _initialSupply\n    ) public payable ContinuousToken(_name, _symbol, _decimals, _initialSupply) {\n        reserve = msg.value;\n    }\n\n    function() external payable { mint(); }\n\n    function mint() public payable {\n        uint purchaseAmount = msg.value;\n        _continuousMint(purchaseAmount);\n        reserve = reserve.add(purchaseAmount);\n    }\n\n    function burn(uint _amount) public {\n        uint refundAmount = _continuousBurn(_amount);\n        reserve = reserve.sub(refundAmount);\n        msg.sender.transfer(refundAmount);\n    }\n\n    function reserveBalance() public view returns (uint) {\n        return reserve;\n    }    \n}",
  "sourcePath": "/Users/shredder/git/personal-token-bonding-curve/contracts/token/ETHContinuousToken.sol",
  "compiler": {
    "name": "solc",
    "version": "0.5.17+commit.d19bba13.Emscripten.clang"
  },
  "schemaVersion": "3.2.3",
  "updatedAt": "2020-08-13T20:15:44.992Z",
  "networkType": "ethereum",
  "devdoc": {
    "methods": {
      "allowance(address,address)": {
        "details": "See {IERC20-allowance}."
      },
      "approve(address,uint256)": {
        "details": "See {IERC20-approve}.     * Requirements:     * - `spender` cannot be the zero address."
      },
      "balanceOf(address)": {
        "details": "See {IERC20-balanceOf}."
      },
      "decimals()": {
        "details": "Returns the number of decimals used to get its user representation. For example, if `decimals` equals `2`, a balance of `505` tokens should be displayed to a user as `5,05` (`505 / 10 ** 2`).     * Tokens usually opt for a value of 18, imitating the relationship between Ether and Wei.     * NOTE: This information is only used for _display_ purposes: it in no way affects any of the arithmetic of the contract, including {IERC20-balanceOf} and {IERC20-transfer}."
      },
      "decreaseAllowance(address,uint256)": {
        "details": "Atomically decreases the allowance granted to `spender` by the caller.     * This is an alternative to {approve} that can be used as a mitigation for problems described in {IERC20-approve}.     * Emits an {Approval} event indicating the updated allowance.     * Requirements:     * - `spender` cannot be the zero address. - `spender` must have allowance for the caller of at least `subtractedValue`."
      },
      "increaseAllowance(address,uint256)": {
        "details": "Atomically increases the allowance granted to `spender` by the caller.     * This is an alternative to {approve} that can be used as a mitigation for problems described in {IERC20-approve}.     * Emits an {Approval} event indicating the updated allowance.     * Requirements:     * - `spender` cannot be the zero address."
      },
      "isOwner()": {
        "details": "Returns true if the caller is the current owner."
      },
      "name()": {
        "details": "Returns the name of the token."
      },
      "owner()": {
        "details": "Returns the address of the current owner."
      },
      "renounceOwnership()": {
        "details": "Leaves the contract without owner. It will not be possible to call `onlyOwner` functions anymore. Can only be called by the current owner.     * NOTE: Renouncing ownership will leave the contract without an owner, thereby removing any functionality that is only available to the owner."
      },
      "symbol()": {
        "details": "Returns the symbol of the token, usually a shorter version of the name."
      },
      "totalSupply()": {
        "details": "See {IERC20-totalSupply}."
      },
      "transfer(address,uint256)": {
        "details": "See {IERC20-transfer}.     * Requirements:     * - `recipient` cannot be the zero address. - the caller must have a balance of at least `amount`."
      },
      "transferFrom(address,address,uint256)": {
        "details": "See {IERC20-transferFrom}.     * Emits an {Approval} event indicating the updated allowance. This is not required by the EIP. See the note at the beginning of {ERC20};     * Requirements: - `sender` and `recipient` cannot be the zero address. - `sender` must have a balance of at least `amount`. - the caller must have allowance for `sender`'s tokens of at least `amount`."
      },
      "transferOwnership(address)": {
        "details": "Transfers ownership of the contract to a new account (`newOwner`). Can only be called by the current owner."
      }
    }
  },
  "userdoc": {
    "methods": {}
  }
}