{
  "contractName": "NazToken",
  "abi": [
    {
      "inputs": [
        {
          "internalType": "string",
          "name": "_name",
          "type": "string"
        },
        {
          "internalType": "string",
          "name": "_symbol",
          "type": "string"
        },
        {
          "internalType": "uint8",
          "name": "_decimals",
          "type": "uint8"
        },
        {
          "internalType": "uint256",
          "name": "_initialSupply",
          "type": "uint256"
        }
      ],
      "payable": true,
      "stateMutability": "payable",
      "type": "constructor"
    },
    {
      "anonymous": false,
      "inputs": [
        {
          "indexed": true,
          "internalType": "address",
          "name": "owner",
          "type": "address"
        },
        {
          "indexed": true,
          "internalType": "address",
          "name": "spender",
          "type": "address"
        },
        {
          "indexed": false,
          "internalType": "uint256",
          "name": "value",
          "type": "uint256"
        }
      ],
      "name": "Approval",
      "type": "event"
    },
    {
      "anonymous": false,
      "inputs": [
        {
          "indexed": false,
          "internalType": "address",
          "name": "sender",
          "type": "address"
        },
        {
          "indexed": false,
          "internalType": "uint256",
          "name": "amount",
          "type": "uint256"
        },
        {
          "indexed": false,
          "internalType": "uint256",
          "name": "refund",
          "type": "uint256"
        }
      ],
      "name": "Burned",
      "type": "event"
    },
    {
      "anonymous": false,
      "inputs": [
        {
          "indexed": false,
          "internalType": "address",
          "name": "sender",
          "type": "address"
        },
        {
          "indexed": false,
          "internalType": "uint256",
          "name": "amount",
          "type": "uint256"
        },
        {
          "indexed": false,
          "internalType": "uint256",
          "name": "deposit",
          "type": "uint256"
        }
      ],
      "name": "Minted",
      "type": "event"
    },
    {
      "anonymous": false,
      "inputs": [
        {
          "indexed": true,
          "internalType": "address",
          "name": "previousOwner",
          "type": "address"
        },
        {
          "indexed": true,
          "internalType": "address",
          "name": "newOwner",
          "type": "address"
        }
      ],
      "name": "OwnershipTransferred",
      "type": "event"
    },
    {
      "anonymous": false,
      "inputs": [
        {
          "indexed": true,
          "internalType": "address",
          "name": "from",
          "type": "address"
        },
        {
          "indexed": true,
          "internalType": "address",
          "name": "to",
          "type": "address"
        },
        {
          "indexed": false,
          "internalType": "uint256",
          "name": "value",
          "type": "uint256"
        }
      ],
      "name": "Transfer",
      "type": "event"
    },
    {
      "payable": true,
      "stateMutability": "payable",
      "type": "fallback"
    },
    {
      "constant": true,
      "inputs": [
        {
          "internalType": "address",
          "name": "owner",
          "type": "address"
        },
        {
          "internalType": "address",
          "name": "spender",
          "type": "address"
        }
      ],
      "name": "allowance",
      "outputs": [
        {
          "internalType": "uint256",
          "name": "",
          "type": "uint256"
        }
      ],
      "payable": false,
      "stateMutability": "view",
      "type": "function"
    },
    {
      "constant": false,
      "inputs": [
        {
          "internalType": "address",
          "name": "spender",
          "type": "address"
        },
        {
          "internalType": "uint256",
          "name": "amount",
          "type": "uint256"
        }
      ],
      "name": "approve",
      "outputs": [
        {
          "internalType": "bool",
          "name": "",
          "type": "bool"
        }
      ],
      "payable": false,
      "stateMutability": "nonpayable",
      "type": "function"
    },
    {
      "constant": true,
      "inputs": [
        {
          "internalType": "address",
          "name": "account",
          "type": "address"
        }
      ],
      "name": "balanceOf",
      "outputs": [
        {
          "internalType": "uint256",
          "name": "",
          "type": "uint256"
        }
      ],
      "payable": false,
      "stateMutability": "view",
      "type": "function"
    },
    {
      "constant": true,
      "inputs": [],
      "name": "continuousSupply",
      "outputs": [
        {
          "internalType": "uint256",
          "name": "",
          "type": "uint256"
        }
      ],
      "payable": false,
      "stateMutability": "view",
      "type": "function"
    },
    {
      "constant": true,
      "inputs": [],
      "name": "decimals",
      "outputs": [
        {
          "internalType": "uint8",
          "name": "",
          "type": "uint8"
        }
      ],
      "payable": false,
      "stateMutability": "view",
      "type": "function"
    },
    {
      "constant": false,
      "inputs": [
        {
          "internalType": "address",
          "name": "spender",
          "type": "address"
        },
        {
          "internalType": "uint256",
          "name": "subtractedValue",
          "type": "uint256"
        }
      ],
      "name": "decreaseAllowance",
      "outputs": [
        {
          "internalType": "bool",
          "name": "",
          "type": "bool"
        }
      ],
      "payable": false,
      "stateMutability": "nonpayable",
      "type": "function"
    },
    {
      "constant": true,
      "inputs": [
        {
          "internalType": "uint256",
          "name": "_continuousTokenAmount",
          "type": "uint256"
        }
      ],
      "name": "getContinuousBurnRefund",
      "outputs": [
        {
          "internalType": "uint256",
          "name": "",
          "type": "uint256"
        }
      ],
      "payable": false,
      "stateMutability": "view",
      "type": "function"
    },
    {
      "constant": true,
      "inputs": [
        {
          "internalType": "uint256",
          "name": "_reserveTokenAmount",
          "type": "uint256"
        }
      ],
      "name": "getContinuousMintReward",
      "outputs": [
        {
          "internalType": "uint256",
          "name": "",
          "type": "uint256"
        }
      ],
      "payable": false,
      "stateMutability": "view",
      "type": "function"
    },
    {
      "constant": false,
      "inputs": [
        {
          "internalType": "address",
          "name": "spender",
          "type": "address"
        },
        {
          "internalType": "uint256",
          "name": "addedValue",
          "type": "uint256"
        }
      ],
      "name": "increaseAllowance",
      "outputs": [
        {
          "internalType": "bool",
          "name": "",
          "type": "bool"
        }
      ],
      "payable": false,
      "stateMutability": "nonpayable",
      "type": "function"
    },
    {
      "constant": true,
      "inputs": [],
      "name": "isOwner",
      "outputs": [
        {
          "internalType": "bool",
          "name": "",
          "type": "bool"
        }
      ],
      "payable": false,
      "stateMutability": "view",
      "type": "function"
    },
    {
      "constant": true,
      "inputs": [],
      "name": "name",
      "outputs": [
        {
          "internalType": "string",
          "name": "",
          "type": "string"
        }
      ],
      "payable": false,
      "stateMutability": "view",
      "type": "function"
    },
    {
      "constant": true,
      "inputs": [],
      "name": "owner",
      "outputs": [
        {
          "internalType": "address",
          "name": "",
          "type": "address"
        }
      ],
      "payable": false,
      "stateMutability": "view",
      "type": "function"
    },
    {
      "constant": false,
      "inputs": [],
      "name": "renounceOwnership",
      "outputs": [],
      "payable": false,
      "stateMutability": "nonpayable",
      "type": "function"
    },
    {
      "constant": true,
      "inputs": [],
      "name": "symbol",
      "outputs": [
        {
          "internalType": "string",
          "name": "",
          "type": "string"
        }
      ],
      "payable": false,
      "stateMutability": "view",
      "type": "function"
    },
    {
      "constant": true,
      "inputs": [],
      "name": "totalSupply",
      "outputs": [
        {
          "internalType": "uint256",
          "name": "",
          "type": "uint256"
        }
      ],
      "payable": false,
      "stateMutability": "view",
      "type": "function"
    },
    {
      "constant": false,
      "inputs": [
        {
          "internalType": "address",
          "name": "recipient",
          "type": "address"
        },
        {
          "internalType": "uint256",
          "name": "amount",
          "type": "uint256"
        }
      ],
      "name": "transfer",
      "outputs": [
        {
          "internalType": "bool",
          "name": "",
          "type": "bool"
        }
      ],
      "payable": false,
      "stateMutability": "nonpayable",
      "type": "function"
    },
    {
      "constant": false,
      "inputs": [
        {
          "internalType": "address",
          "name": "sender",
          "type": "address"
        },
        {
          "internalType": "address",
          "name": "recipient",
          "type": "address"
        },
        {
          "internalType": "uint256",
          "name": "amount",
          "type": "uint256"
        }
      ],
      "name": "transferFrom",
      "outputs": [
        {
          "internalType": "bool",
          "name": "",
          "type": "bool"
        }
      ],
      "payable": false,
      "stateMutability": "nonpayable",
      "type": "function"
    },
    {
      "constant": false,
      "inputs": [
        {
          "internalType": "address",
          "name": "newOwner",
          "type": "address"
        }
      ],
      "name": "transferOwnership",
      "outputs": [],
      "payable": false,
      "stateMutability": "nonpayable",
      "type": "function"
    },
    {
      "constant": false,
      "inputs": [
        {
          "internalType": "uint256",
          "name": "_slippage",
          "type": "uint256"
        },
        {
          "internalType": "uint256",
          "name": "_expectedAmount",
          "type": "uint256"
        }
      ],
      "name": "mint",
      "outputs": [],
      "payable": true,
      "stateMutability": "payable",
      "type": "function"
    },
    {
      "constant": false,
      "inputs": [
        {
          "internalType": "uint256",
          "name": "_amount",
          "type": "uint256"
        },
        {
          "internalType": "uint256",
          "name": "_slippage",
          "type": "uint256"
        },
        {
          "internalType": "uint256",
          "name": "_expectedAmount",
          "type": "uint256"
        }
      ],
      "name": "burn",
      "outputs": [],
      "payable": false,
      "stateMutability": "nonpayable",
      "type": "function"
    },
    {
      "constant": true,
      "inputs": [],
      "name": "reserveBalance",
      "outputs": [
        {
          "internalType": "uint256",
          "name": "",
          "type": "uint256"
        }
      ],
      "payable": false,
      "stateMutability": "view",
      "type": "function"
    }
  ],
  "bytecode": "0x60806040526040516200214238038062002142833981810160405260808110156200002957600080fd5b81019080805160405193929190846401000000008211156200004a57600080fd5b9083019060208201858111156200006057600080fd5b82516401000000008111828201881017156200007b57600080fd5b82525081516020918201929091019080838360005b83811015620000aa57818101518382015260200162000090565b50505050905090810190601f168015620000d85780820380516001836020036101000a031916815260200191505b5060405260200180516040519392919084640100000000821115620000fc57600080fd5b9083019060208201858111156200011257600080fd5b82516401000000008111828201881017156200012d57600080fd5b82525081516020918201929091019080838360005b838110156200015c57818101518382015260200162000142565b50505050905090810190601f1680156200018a5780820380516001836020036101000a031916815260200191505b50604090815260208201519101519092509050838383838383836000620001b96001600160e01b036200027416565b600080546001600160a01b0319166001600160a01b0383169081178255604051929350917f8be0079c531659141344cd1fd0a4f28419497f9722a3daafe3b4186f6b6457e0908290a350825162000218906004906020860190620003e0565b5081516200022e906005906020850190620003e0565b506006805460ff191660ff9290921691909117905550620002529050338262000279565b50506006805461ff001916610100179055505034600755506200048292505050565b335b90565b6001600160a01b038216620002d5576040805162461bcd60e51b815260206004820152601f60248201527f45524332303a206d696e7420746f20746865207a65726f206164647265737300604482015290519081900360640190fd5b620002f1816003546200037e60201b620007051790919060201c565b6003556001600160a01b03821660009081526001602090815260409091205462000326918390620007056200037e821b17901c565b6001600160a01b03831660008181526001602090815260408083209490945583518581529351929391927fddf252ad1be2c89b69c2b068fc378daa952ba7f163c4a11628f55a4df523b3ef9281900390910190a35050565b600082820183811015620003d9576040805162461bcd60e51b815260206004820152601b60248201527f536166654d6174683a206164646974696f6e206f766572666c6f770000000000604482015290519081900360640190fd5b9392505050565b828054600181600116156101000203166002900490600052602060002090601f016020900481019282601f106200042357805160ff191683800117855562000453565b8280016001018555821562000453579182015b828111156200045357825182559160200191906001019062000436565b506200046192915062000465565b5090565b6200027691905b808211156200046157600081556001016200046c565b611cb080620004926000396000f3fe60806040526004361061012a5760003560e01c8063715018a6116100ab578063a10954fe1161006f578063a10954fe146104cc578063a457c2d7146104e1578063a9059cbb1461051a578063da12457a14610553578063dd62ed3e14610568578063f2fde38b146105a35761012a565b8063715018a6146104325780637cbed3e0146104475780638da5cb5b146104715780638f32d59b146104a257806395d89b41146104b75761012a565b80631b2ef1ca116100f25780631b2ef1ca1461033557806323b872dd14610358578063313ce5671461039b57806339509351146103c657806370a08231146103ff5761012a565b806305a10028146101d557806306fdde031461020d578063095ea7b3146102975780630d8f9f7f146102e457806318160ddd14610320575b600654610100900460ff16610186576040805162461bcd60e51b815260206004820152601f60248201527f5265656e7472616e637947756172643a207265656e7472616e742063616c6c00604482015290519081900360640190fd5b6006805461ff001916905534600061019d826105d6565b90506101ab826064836105f1565b506007546101bf908363ffffffff61070516565b60075550506006805461ff001916610100179055005b3480156101e157600080fd5b5061020b600480360360608110156101f857600080fd5b5080359060208101359060400135610768565b005b34801561021957600080fd5b5061022261083e565b6040805160208082528351818301528351919283929083019185019080838360005b8381101561025c578181015183820152602001610244565b50505050905090810190601f1680156102895780820380516001836020036101000a031916815260200191505b509250505060405180910390f35b3480156102a357600080fd5b506102d0600480360360408110156102ba57600080fd5b506001600160a01b0381351690602001356108d4565b604080519115158252519081900360200190f35b3480156102f057600080fd5b5061030e6004803603602081101561030757600080fd5b50356105d6565b60408051918252519081900360200190f35b34801561032c57600080fd5b5061030e6108f1565b61020b6004803603604081101561034b57600080fd5b50803590602001356108f7565b34801561036457600080fd5b506102d06004803603606081101561037b57600080fd5b506001600160a01b03813581169160208101359091169060400135610995565b3480156103a757600080fd5b506103b0610a22565b6040805160ff9092168252519081900360200190f35b3480156103d257600080fd5b506102d0600480360360408110156103e957600080fd5b506001600160a01b038135169060200135610a2b565b34801561040b57600080fd5b5061030e6004803603602081101561042257600080fd5b50356001600160a01b0316610a7f565b34801561043e57600080fd5b5061020b610a9a565b34801561045357600080fd5b5061030e6004803603602081101561046a57600080fd5b5035610b3d565b34801561047d57600080fd5b50610486610b58565b604080516001600160a01b039092168252519081900360200190f35b3480156104ae57600080fd5b506102d0610b67565b3480156104c357600080fd5b50610222610b8b565b3480156104d857600080fd5b5061030e610bec565b3480156104ed57600080fd5b506102d06004803603604081101561050457600080fd5b506001600160a01b038135169060200135610bf2565b34801561052657600080fd5b506102d06004803603604081101561053d57600080fd5b506001600160a01b038135169060200135610c60565b34801561055f57600080fd5b5061030e610c74565b34801561057457600080fd5b5061030e6004803603604081101561058b57600080fd5b506001600160a01b0381358116916020013516610c83565b3480156105af57600080fd5b5061020b600480360360208110156105c657600080fd5b50356001600160a01b0316610cae565b60006105e96105e3610c74565b83610d13565b90505b919050565b6000808411610647576040805162461bcd60e51b815260206004820152601960248201527f4465706f736974206d757374206265206e6f6e2d7a65726f2e00000000000000604482015290519081900360640190fd5b6000610652856105d6565b90506000610661828686610ea8565b9050806106b0576040805162461bcd60e51b815260206004820152601860248201527774727920776974682068696768657220736c69707061676560401b604482015290519081900360640190fd5b6106ba3383610f70565b604080513381526020810184905280820188905290517f25b428dfde728ccfaddad7e29e4ac23c24ed7fd1a6e3e3f91894a9a073f5dfff9181900360600190a15090505b9392505050565b60008282018381101561075f576040805162461bcd60e51b815260206004820152601b60248201527f536166654d6174683a206164646974696f6e206f766572666c6f770000000000604482015290519081900360640190fd5b90505b92915050565b600654610100900460ff166107c4576040805162461bcd60e51b815260206004820152601f60248201527f5265656e7472616e637947756172643a207265656e7472616e742063616c6c00604482015290519081900360640190fd5b6006805461ff00191690556007546000906107e29085908585611062565b6007549091506107f8908263ffffffff61121016565b600755604051339082156108fc029083906000818181858888f19350505050158015610828573d6000803e3d6000fd5b50506006805461ff001916610100179055505050565b60048054604080516020601f60026000196101006001881615020190951694909404938401819004810282018101909252828152606093909290918301828280156108ca5780601f1061089f576101008083540402835291602001916108ca565b820191906000526020600020905b8154815290600101906020018083116108ad57829003601f168201915b5050505050905090565b60006108e86108e1611252565b8484611256565b50600192915050565b60035490565b600654610100900460ff16610953576040805162461bcd60e51b815260206004820152601f60248201527f5265656e7472616e637947756172643a207265656e7472616e742063616c6c00604482015290519081900360640190fd5b6006805461ff00191690553461096a8184846105f1565b5060075461097e908263ffffffff61070516565b60075550506006805461ff00191661010017905550565b60006109a2848484611342565b610a18846109ae611252565b610a1385604051806060016040528060288152602001611b08602891396001600160a01b038a166000908152600260205260408120906109ec611252565b6001600160a01b03168152602081019190915260400160002054919063ffffffff6114a016565b611256565b5060019392505050565b60065460ff1690565b60006108e8610a38611252565b84610a138560026000610a49611252565b6001600160a01b03908116825260208083019390935260409182016000908120918c16815292529020549063ffffffff61070516565b6001600160a01b031660009081526001602052604090205490565b610aa2610b67565b610af3576040805162461bcd60e51b815260206004820181905260248201527f4f776e61626c653a2063616c6c6572206973206e6f7420746865206f776e6572604482015290519081900360640190fd5b600080546040516001600160a01b03909116907f8be0079c531659141344cd1fd0a4f28419497f9722a3daafe3b4186f6b6457e0908390a3600080546001600160a01b0319169055565b60006105e9610b4a610c74565b610b52610bec565b84611537565b6000546001600160a01b031690565b600080546001600160a01b0316610b7c611252565b6001600160a01b031614905090565b60058054604080516020601f60026000196101006001881615020190951694909404938401819004810282018101909252828152606093909290918301828280156108ca5780601f1061089f576101008083540402835291602001916108ca565b60075490565b60006108e8610bff611252565b84610a1385604051806060016040528060258152602001611c576025913960026000610c29611252565b6001600160a01b03908116825260208083019390935260409182016000908120918d1681529252902054919063ffffffff6114a016565b60006108e8610c6d611252565b8484611342565b6000610c7e6108f1565b905090565b6001600160a01b03918216600090815260026020908152604080832093909416825291909152205490565b610cb6610b67565b610d07576040805162461bcd60e51b815260206004820181905260248201527f4f776e61626c653a2063616c6c6572206973206e6f7420746865206f776e6572604482015290519081900360640190fd5b610d1081611622565b50565b6000808311610d61576040805162461bcd60e51b81526020600482015260156024820152743a3434b9903a37b5b2b71034b9903232b0b217171760591b604482015290519081900360640190fd5b681b1ae4d6e2ef5000008210610db7576040805162461bcd60e51b81526020600482015260166024820152756f6820776f772e205468616e6b732c20627574206e6f60501b604482015290519081900360640190fd5b81610dc457506000610762565b6000610dee610de185670de0b6b3a764000063ffffffff61070516565b859063ffffffff6116c216565b90506000610e1a84610e0e84671bc16d674ec8000063ffffffff61171b16565b9063ffffffff61070516565b90506000610e55610e3983676f05b59d3b20000063ffffffff6116c216565b6ec097ce7bc90715b34b9f10000000009063ffffffff61070516565b90506000610e8b6002610e7f670de0b6b3a7640000610e738661175d565b9063ffffffff61121016565b9063ffffffff61171b16565b9050610e9d818863ffffffff61121016565b979650505050505050565b600082600111158015610ebd57506127108311155b610ef85760405162461bcd60e51b8152600401808060200182810382526030815260200180611a916030913960400191505060405180910390fd5b6000610f0484846117c2565b9050610f16838263ffffffff61121016565b851015610f65576040805162461bcd60e51b815260206004820152601860248201527774727920776974682068696768657220736c69707061676560401b604482015290519081900360640190fd5b506001949350505050565b6001600160a01b038216610fcb576040805162461bcd60e51b815260206004820152601f60248201527f45524332303a206d696e7420746f20746865207a65726f206164647265737300604482015290519081900360640190fd5b600354610fde908263ffffffff61070516565b6003556001600160a01b03821660009081526001602052604090205461100a908263ffffffff61070516565b6001600160a01b03831660008181526001602090815260408083209490945583518581529351929391927fddf252ad1be2c89b69c2b068fc378daa952ba7f163c4a11628f55a4df523b3ef9281900390910190a35050565b60008085116110b8576040805162461bcd60e51b815260206004820152601860248201527f416d6f756e74206d757374206265206e6f6e2d7a65726f2e0000000000000000604482015290519081900360640190fd5b846110c233610a7f565b10156110ff5760405162461bcd60e51b815260040180806020018281038252602f815260200180611b9a602f913960400191505060405180910390fd5b600061110a86610b3d565b9050848110611160576040805162461bcd60e51b815260206004820152601860248201527f646f6e2774206265206861636b696e672c20667269656e640000000000000000604482015290519081900360640190fd5b600061116d828686610ea8565b9050806111bc576040805162461bcd60e51b815260206004820152601860248201527774727920776974682068696768657220736c69707061676560401b604482015290519081900360640190fd5b6111c633886118a2565b604080513381526020810189905280820184905290517f23ff0e75edf108e3d0392d92e13e8c8a868ef19001bd49f9e94876dc46dff87f9181900360600190a15095945050505050565b600061075f83836040518060400160405280601e81526020017f536166654d6174683a207375627472616374696f6e206f766572666c6f7700008152506114a0565b3390565b6001600160a01b03831661129b5760405162461bcd60e51b8152600401808060200182810382526024815260200180611b766024913960400191505060405180910390fd5b6001600160a01b0382166112e05760405162461bcd60e51b8152600401808060200182810382526022815260200180611a6f6022913960400191505060405180910390fd5b6001600160a01b03808416600081815260026020908152604080832094871680845294825291829020859055815185815291517f8c5be1e5ebec7d5bd14f71427d1e84f3dd0314c0f7b2291e5b200ac8c7c3b9259281900390910190a3505050565b6001600160a01b0383166113875760405162461bcd60e51b8152600401808060200182810382526025815260200180611b516025913960400191505060405180910390fd5b6001600160a01b0382166113cc5760405162461bcd60e51b8152600401808060200182810382526023815260200180611a046023913960400191505060405180910390fd5b61140f81604051806060016040528060268152602001611ac1602691396001600160a01b038616600090815260016020526040902054919063ffffffff6114a016565b6001600160a01b038085166000908152600160205260408082209390935590841681522054611444908263ffffffff61070516565b6001600160a01b0380841660008181526001602090815260409182902094909455805185815290519193928716927fddf252ad1be2c89b69c2b068fc378daa952ba7f163c4a11628f55a4df523b3ef92918290030190a3505050565b6000818484111561152f5760405162461bcd60e51b81526004018080602001828103825283818151815260200191508051906020019080838360005b838110156114f45781810151838201526020016114dc565b50505050905090810190601f1680156115215780820380516001836020036101000a031916815260200191505b509250505060405180910390fd5b505050900390565b600080841180156115485750600083115b80156115545750838211155b61158f5760405162461bcd60e51b815260040180806020018281038252608e815260200180611bc9608e913960a00191505060405180910390fd5b8161159c575060006106fe565b838214156115ab5750816106fe565b60006115c983610e7387670de0b6b3a764000063ffffffff61070516565b905060006115e284610e0e84600263ffffffff6116c216565b9050611618671bc16d674ec80000610e7f8661160c85670de0b6b3a764000063ffffffff61121016565b9063ffffffff6116c216565b9695505050505050565b6001600160a01b0381166116675760405162461bcd60e51b8152600401808060200182810382526026815260200180611a496026913960400191505060405180910390fd5b600080546040516001600160a01b03808516939216917f8be0079c531659141344cd1fd0a4f28419497f9722a3daafe3b4186f6b6457e091a3600080546001600160a01b0319166001600160a01b0392909216919091179055565b6000826116d157506000610762565b828202828482816116de57fe5b041461075f5760405162461bcd60e51b8152600401808060200182810382526021815260200180611ae76021913960400191505060405180910390fd5b600061075f83836040518060400160405280601a81526020017f536166654d6174683a206469766973696f6e206279207a65726f00000000000081525061199e565b60008161176c575060006105ec565b6003821161177c575060016105ec565b60006117946002610e7f85600163ffffffff61070516565b9050825b808210156106fe5750806117bb6002610e7f83610e0e888263ffffffff61171b16565b9150611798565b6000806117d5838563ffffffff6116c216565b9050612710811015611824576040805162461bcd60e51b81526020600482015260136024820152721b9d5b58995c881a5cc81d1bdbc81cdb585b1b606a1b604482015290519081900360640190fd5b8360011115801561183757506127108411155b611888576040805162461bcd60e51b815260206004820152601b60248201527f70657263656e746167652076616c756520697320696e76616c69640000000000604482015290519081900360640190fd5b61189a8161271063ffffffff61171b16565b949350505050565b6001600160a01b0382166118e75760405162461bcd60e51b8152600401808060200182810382526021815260200180611b306021913960400191505060405180910390fd5b61192a81604051806060016040528060228152602001611a27602291396001600160a01b038516600090815260016020526040902054919063ffffffff6114a016565b6001600160a01b038316600090815260016020526040902055600354611956908263ffffffff61121016565b6003556040805182815290516000916001600160a01b038516917fddf252ad1be2c89b69c2b068fc378daa952ba7f163c4a11628f55a4df523b3ef9181900360200190a35050565b600081836119ed5760405162461bcd60e51b81526020600482018181528351602484015283519092839260449091019190850190808383600083156114f45781810151838201526020016114dc565b5060008385816119f957fe5b049594505050505056fe45524332303a207472616e7366657220746f20746865207a65726f206164647265737345524332303a206275726e20616d6f756e7420657863656564732062616c616e63654f776e61626c653a206e6577206f776e657220697320746865207a65726f206164647265737345524332303a20617070726f766520746f20746865207a65726f2061646472657373736c6970706167652063616e206265206265747765656e203120616e6420313030303020626173697320706f696e747345524332303a207472616e7366657220616d6f756e7420657863656564732062616c616e6365536166654d6174683a206d756c7469706c69636174696f6e206f766572666c6f7745524332303a207472616e7366657220616d6f756e74206578636565647320616c6c6f77616e636545524332303a206275726e2066726f6d20746865207a65726f206164647265737345524332303a207472616e736665722066726f6d20746865207a65726f206164647265737345524332303a20617070726f76652066726f6d20746865207a65726f20616464726573736e6f206d6f6e6579202d206e6f20686f6e657920667269656e642c20646f6e2774206265206861636b696e67206d65436865636b2074686520666f6c6c6f77696e673a2028692920737570706c79206d7573742062652067726561746572207468616e20303b2028696929207265736572766542616c616e6365206d7573742062652067726561746572207468616e20303b20286969692920796f752063616e6e6f742073656c6c206d6f7265207468616e2074686520737570706c7945524332303a2064656372656173656420616c6c6f77616e63652062656c6f77207a65726fa265627a7a72315820fa8d1dc4cd093c4a14acad61e0360f2b40ea9ad1d0d8ced2e5e74d456fec956a64736f6c63430005110032",
  "source": "pragma solidity 0.5.17;\n\nimport \"@openzeppelin/contracts/utils/ReentrancyGuard.sol\";\nimport \"./ContinuousToken.sol\";\n\ncontract NazToken is ContinuousToken, ReentrancyGuard {\n    uint256 internal reserve;\n\n    constructor(\n        string memory _name,\n        string memory _symbol,\n        uint8 _decimals,\n        uint256 _initialSupply\n    )\n        public\n        payable\n        ContinuousToken(_name, _symbol, _decimals, _initialSupply)\n    {\n        reserve = msg.value;\n    }\n\n    function() external payable nonReentrant {\n        uint256 purchaseAmount = msg.value;\n        uint256 rewardAmount = getContinuousMintReward(purchaseAmount);\n        _continuousMint(purchaseAmount, 100, rewardAmount);\n        reserve = reserve.add(purchaseAmount);\n    }\n\n    function mint(uint256 _slippage, uint256 _expectedAmount)\n        public\n        payable\n        nonReentrant\n    {\n        uint256 purchaseAmount = msg.value;\n        _continuousMint(purchaseAmount, _slippage, _expectedAmount);\n        reserve = reserve.add(purchaseAmount);\n    }\n\n    function burn(\n        uint256 _amount,\n        uint256 _slippage,\n        uint256 _expectedAmount\n    ) public nonReentrant {\n        uint256 refundAmount = _continuousBurn(\n            _amount,\n            reserve,\n            _slippage,\n            _expectedAmount\n        );\n        reserve = reserve.sub(refundAmount);\n        msg.sender.transfer(refundAmount);\n    }\n\n    function reserveBalance() public view returns (uint256) {\n        return reserve;\n    }\n}\n",
  "sourcePath": "/Users/shredder/git/personal-token-bonding-curve/contracts/NazToken.sol",
  "compiler": {
    "name": "solc",
    "version": "0.5.17+commit.d19bba13.Emscripten.clang"
  },
  "schemaVersion": "3.2.3",
  "updatedAt": "2020-08-17T15:23:24.364Z",
  "networkType": "ethereum",
  "devdoc": {
    "methods": {
      "allowance(address,address)": {
        "details": "See {IERC20-allowance}."
      },
      "approve(address,uint256)": {
        "details": "See {IERC20-approve}.     * Requirements:     * - `spender` cannot be the zero address."
      },
      "balanceOf(address)": {
        "details": "See {IERC20-balanceOf}."
      },
      "decimals()": {
        "details": "Returns the number of decimals used to get its user representation. For example, if `decimals` equals `2`, a balance of `505` tokens should be displayed to a user as `5,05` (`505 / 10 ** 2`).     * Tokens usually opt for a value of 18, imitating the relationship between Ether and Wei.     * NOTE: This information is only used for _display_ purposes: it in no way affects any of the arithmetic of the contract, including {IERC20-balanceOf} and {IERC20-transfer}."
      },
      "decreaseAllowance(address,uint256)": {
        "details": "Atomically decreases the allowance granted to `spender` by the caller.     * This is an alternative to {approve} that can be used as a mitigation for problems described in {IERC20-approve}.     * Emits an {Approval} event indicating the updated allowance.     * Requirements:     * - `spender` cannot be the zero address. - `spender` must have allowance for the caller of at least `subtractedValue`."
      },
      "increaseAllowance(address,uint256)": {
        "details": "Atomically increases the allowance granted to `spender` by the caller.     * This is an alternative to {approve} that can be used as a mitigation for problems described in {IERC20-approve}.     * Emits an {Approval} event indicating the updated allowance.     * Requirements:     * - `spender` cannot be the zero address."
      },
      "isOwner()": {
        "details": "Returns true if the caller is the current owner."
      },
      "name()": {
        "details": "Returns the name of the token."
      },
      "owner()": {
        "details": "Returns the address of the current owner."
      },
      "renounceOwnership()": {
        "details": "Leaves the contract without owner. It will not be possible to call `onlyOwner` functions anymore. Can only be called by the current owner.     * NOTE: Renouncing ownership will leave the contract without an owner, thereby removing any functionality that is only available to the owner."
      },
      "symbol()": {
        "details": "Returns the symbol of the token, usually a shorter version of the name."
      },
      "totalSupply()": {
        "details": "See {IERC20-totalSupply}."
      },
      "transfer(address,uint256)": {
        "details": "See {IERC20-transfer}.     * Requirements:     * - `recipient` cannot be the zero address. - the caller must have a balance of at least `amount`."
      },
      "transferFrom(address,address,uint256)": {
        "details": "See {IERC20-transferFrom}.     * Emits an {Approval} event indicating the updated allowance. This is not required by the EIP. See the note at the beginning of {ERC20};     * Requirements: - `sender` and `recipient` cannot be the zero address. - `sender` must have a balance of at least `amount`. - the caller must have allowance for `sender`'s tokens of at least `amount`."
      },
      "transferOwnership(address)": {
        "details": "Transfers ownership of the contract to a new account (`newOwner`). Can only be called by the current owner."
      }
    }
  },
  "userdoc": {
    "methods": {}
  }
}